:10000000ADC20000E3C20000E1C20000DFC2000098
:10001000DDC20000DBC20000D9C20000D7C2000070
:10002000D5C20000D3C200000C94D2250C949F26A8
:100030000C942E21CBC20000C9C20000C7C2000030
:10004000C5C20000C3C20000C1C20000BFC20000A0
:10005000BDC200000C94A521B9C20000B7C20000C7
:10006000B5C20000B3C20000B1C20000AFC20000C0
:10007000ADC20000ABC20000A9C20000A7C20000D0
:10008000A5C20000A3C20000A1C200009FC20000E0
:100090009DC200009BC2000099C2000097C20000F0
:1000A00095C2000093C2000091C2000029001E000A
:1000B0001F0020002100220023002400250026002C
:1000C00027002D002E0000002A002B000000140045
:1000D0001A000800150017001C0018000C00120080
:1000E00013002F0030003100E00000000400160073
:1000F000070009000A000B000D000E000F0033007E
:10010000340028000000E10000001D001B00060074
:1001100019000500110010003600370038000000FB
:10012000E5000000E000E2000000E3000000000045
:100130002C00000000000000E300E6000000215257
:10014000E40035003A003B003C003D003E003F002B
:1001500040004100420043004400450000004C00C4
:10016000000000000000520000000000000000003D
:10017000000000000000000000000000000000007F
:100180000000500051004F0000000000000000007F
:100190000000BD004A004B0000000000000000000D
:1001A000AC00AE00AD00AB00A800AA00A900BE00E4
:1001B0004D004E00000000000000000000000000A4
:1001C000000000000000000000000000000000002F
:1001D00000000000010000001E0F0500047F3F1F0B
:1001E000643214643214783C1E1E140A052223253E
:1001F0002628292A2C2D2F3032333536383A3B3DEC
:100200003E4042434547494A4C4E50515355575939
:100210005A5C5E6062646668696B6D6F7173757756
:10022000797B7D7F81838587898A8C8E9092949655
:10023000989A9C9E9FA1A3A5A7A8AAACAEAFB1B364
:10024000B4B6B8B9BBBCBEBFC1C2C3C5C6C7C9CAB4
:10025000CBCCCDCED0D1D2D2D3D4D5D6D7D7D8D976
:10026000D9DADADBDBDBDCDCDCDCDCDDDDDDDDDCD4
:10027000DCDCDCDCDBDBDBDADAD9D9D8D7D7D6D5E6
:10028000D4D3D2D2D1D0CECDCCCBCAC9C7C6C5C3A8
:10029000C2C1BFBEBCBBB9B8B6B4B3B1AFAEACAAF5
:1002A000A8A7A5A3A19F9E9C9A98969492908E8CA5
:1002B0008A89878583817F7D7B79777573716F6D7F
:1002C0006B6968666462605E5C5A59575553515059
:1002D0004E4C4A4947454342403E3D3B3A3836350D
:1002E0003332302F2D2C2A292826252322FFAA7FBE
:1002F0005540000101010101010101010202020258
:1003000002020202020303030303030303040404BF
:100310000404040405050505050606060606070788
:1003200007070708080808090909090A0A0A0B0B40
:100330000B0C0C0C0D0D0D0E0E0E0F0F0F101011DF
:100340001111121213131414151516161717181865
:1003500019191A1A1B1B1C1D1D1E1E1F20202122CD
:1003600022232424252626272829292A2B2C2D2D13
:100370002E2F30313232333435363738393A3B3C30
:100380003D3E3F404142434445464748494A4C4D23
:100390004E4F50515354555658595A5B5D5E5F61EC
:1003A0006264656668696B6C6D6F7072737577787F
:1003B0007A7B7D7E8082838587888A8C8E8F9193DD
:1003C0009596989A9C9EA0A2A3A5A7A9ABADAFB104
:1003D000B3B5B7BABCBEC0C2C4C6C9CBCDCFD1D4E9
:1003E000D6D8DBDDDFE2E4E7E9EBEEF0F3F5F8FA8F
:1003F000FDFF0A0344005A003600300000001003DD
:100400004B0042004400460061006E007300000093
:100410000403090409023B00020100A0FA090400D8
:10042000000103010100092111010001224400071C
:10043000058103080001090401000103000000090F
:10044000211101000122B6000705820320000112DC
:10045000010002000000085A44602201000102006D
:100460000105010902A10185020901A1000509197F
:10047000012908150025019508750181020501096A
:100480003009311581257F950275088106093815D7
:1004900081257F950175088106050C0A38021581B2
:1004A000257F950175088106C0C005010980A1015D
:1004B000850319012AB700150126B70095017510AB
:1004C0008100C0050C0901A101850419012AA002BF
:1004D000150126A002950175108100C005010906CD
:1004E000A1018506050719E029E7150025019508F2
:1004F000750181020507190029EF1500250195F006
:1005000075018102050819012905950575019102FA
:10051000950175039101C005010906A1010507199F
:10052000E029E715002501950875018102950175FF
:100530000881010507190029FF150026FF0095060F
:100540007508810005081901290515002501950583
:1005500075019102950175039101C00011241FBE20
:10056000CFEFDAE0DEBFCDBF04B603FE18C0809146
:10057000A9039091AA03A091AB03B091AC0387307B
:10058000904BA740B04B59F41092A9031092AA03C4
:100590001092AB031092AC03E0E0F8E3099511E090
:1005A000A0E0B1E0E6EBF4E502C005900D92AA3EB2
:1005B000B107D9F723E0AAEEB1E001C01D92A93A34
:1005C000B207E1F70E944E120C940F2A19CD823027
:1005D000B8F46530A8F44F3098F450E09FE0699F7C
:1005E000400D511D1124FA019BE4899FE00DF11D7E
:1005F0001124EE0FFF1FE455FF4F8591949108954C
:1006000081E090E00895E3CF089581E00895FDCF63
:100610000895FBCF0895F9CF0895F7CF0895FDCF42
:10062000089508950895FDCF089508950895A6E0CA
:10063000B0E0EDE1F3E00C94DD2849835A839E831A
:100640003091F10189819A81311117C03E813323A4
:1006500089F0222379F088D5182F682F89819A8113
:1006600062D569817A81812F0E94FE0E2696E3E091
:100670000C94F92869D5182FF4CF76D569817A8141
:10068000F3CFFC01262F40815181628173818481E7
:100690009581CDCFCF93DF93EC0161E0F2DFBE0116
:1006A000B6DF882349F061E0CE01EBDFBE01B1DFA8
:1006B0008170DF91CF91089580E0FACF0F931F935F
:1006C000CF93DF93EC0160E0DCDF8C01BE01AADF99
:1006D000BE01C801A8DFDF91CF911F910F9108954E
:1006E0000F931F93CF93DF93EC0161E0CADF8C017E
:1006F0008D8181110E94D018BE01C8018CDF81114B
:1007000006C080E0DF91CF911F910F910895BE0147
:10071000C80185DF8823A9F3BE01C8010E94A21980
:10072000882379F3BE01C8010E94A71E882349F3DC
:10073000BE01C8010E94011B882319F3BE01C80134
:100740000E94D91A8823E9F2BE01C8010E946412EE
:100750008823B9F2BE01C8010E94FE0F882389F2E6
:10076000BE01C8010E941010882359F2BE01C801C1
:100770000E942910C7CF21E030E0A90102C0440F38
:10078000551F8A95E2F7CA0107C4CF93C82F81E0AD
:1007900090E00C2E02C0880F991F0A94E2F70E9485
:1007A000EF0C8C2FE8DFCF91089581E00895FDCF05
:1007B0000895FBCF0895CF93C82FA6D38C2FF7DFD2
:1007C0008C2FF7DF2FEF84E39CE021508040904096
:1007D000E1F700C00000CF91089581E0ECDF0C94B8
:1007E000C92180E0E8DF0C94ED211FDF0E94052184
:1007F00080E00E94851924D00C9478170E94DA18A2
:1008000021D00E942A1812DF0C94092181E008955A
:1008100081FD02C02A9A08952A980895CF93DF9304
:10082000D82FF4DFC82F882311F08D2FF1DF8C2F04
:10083000DF91CF910895229A2A9A0895EFCF0895D3
:1008400080E0FCCF0E94F61EF9CFCF930E94F61EE7
:10085000C82F8091EC018C1771F0C093EC010E94BD
:1008600099216093ED017093EE018093EF019093D5
:10087000F0018C2FE3DFCF910895ADE0B0E0E3E429
:10088000F4E00C94DE28488759876A877B878C8739
:100890009D8791118BD71F8286E0FE013896DE017D
:1008A000119601900D928A95E1F78D8181110CC00E
:1008B00029813A814B815C816D817E818F81C6D691
:1008C0002D96E2E00C94FA28CE010196E3DE811128
:1008D000EFCFF6CFFC012481213019F48081918182
:1008E00074C40895662321F00E945E1C0C94291D97
:1008F0000E94B01CFBCFCF93C82F8823B9F0823859
:10090000B9F40E94051F81FD11C089E30E943220C5
:10091000D8D72FEF87EE93E0215080409040E1F749
:1009200000C0000089E30E944920CBD7CF910895F1
:10093000833899F40E94051F80FDF8CF83E50E945B
:100940003220BFD72FEF81EE94E0215080409040BD
:10095000E1F700C0000083E5E6CF843899F40E94F7
:10096000051F82FDE3CF87E40E943220AAD72FEF34
:1009700081EE94E0215080409040E1F700C00000FB
:1009800087E4D1CF8CEF8C0F813A68F48C2F0E94D2
:10099000A71F882321F08C2F0E94492092D78C2FEB
:1009A0000E943220C2CF80E28C0F883040F4C770A2
:1009B00081E001C0880FCA95EAF7DBD6B6CFEBE538
:1009C000EC0FE33040F4F0E0E959FE4F808190E015
:1009D0000E94381FABCFE8E5EC0FEB3150F4F0E0AC
:1009E000EE0FFF1FEF5CFE4F808191810E945F1F21
:1009F0009DCF83E38C0F833108F098CF61E08C2F7B
:100A000071DF94CF882309F44DC0823861F40E94CD
:100A1000051F81FF47C089E30E94322052D789E336
:100A20000E9449204EC7833851F40E94051F80FF61
:100A300039C083E50E94322044D783E5F1CF843862
:100A400051F40E94051F82FF2DC087E40E943220CE
:100A500038D787E4E5CF9CEF980F913A08F390E2FE
:100A6000980F983048F4877091E001C0990F8A95EB
:100A7000EAF7892F84D6D6CF9BE5980F933020F4E0
:100A800090E080E00C94381F98E5980F9B3120F49B
:100A900090E080E00C945F1F93E3980F933110F483
:100AA00060E020CF08951F93CF93DF93182FEB01C1
:100AB00022DF209731F4812FA5DFDF91CF911F91A5
:100AC00008958FE99FE00197F1F700C0000021979A
:100AD000F0CF70E060E0893311F460E570E0E3CFBF
:100AE000882311F046D6EDC60895882311F047D625
:100AF000E8C60895B0E0A0E0E0E8F5E00C94D7285F
:100B00006C01D62FC72FFC011581068102950F704D
:100B100026D6E82E8823E9F0E12E1123D1F08C2F80
:100B2000807F803461F080E28D0F8830F8F08C2F68
:100B3000807E803221F4D230C8F00023B9F0809159
:100B40004A0382FF13C082E0E0D609D691E0E82E86
:100B5000E926BC2EB2949FE0B922FBE0FB1580F1A0
:100B6000EB2DF0E0EF5EF54D0C949D28E12CF1CFDC
:100B70000C2F0F70C07F11F00295007F112381F0C0
:100B8000002349F080E28D0F883010F0D11105C0AC
:100B9000802FEFD596D68D2F40C0802FFAD5FACF73
:100BA0008D2F30DF002361F080E28D0F883010F050
:100BB000D11103C0802FE3D502C0802FF0D581D69C
:100BC000EB2DE850FF0B349708F04CC10E94F61E45
:100BD00035DECDB7DEB7E9E00C94F3282C2F2F706B
:100BE000F22EC07FC03219F0F29480EFF822DD239C
:100BF00041F0D13081F1112309F439C00023C9F04B
:100C0000CACF80914A0382FD10C0112341F0FF201A
:100C100019F08F2DAED555D680E06DDED1CF80E0B6
:100C2000F1DEFF2069F28F2DC6CF112359F001119B
:100C300003C08F2D55DFC4CF013009F0C1CF8F2DF8
:100C4000C9D5BECF0111BCCF8F2D4FDF8F2DCDD594
:100C50008F2DB2D5B5CF112321F0063008F0B0CFDB
:100C6000E8CF053008F0ACCF8F2D3FDFA9CF0023B0
:100C7000D9F3D93349F43FEF87EE93E03150804008
:100C80009040E1F700C000008D2FBCDE99CF8C2F83
:100C900086958695837069F0813009F091CF8D2F0C
:100CA0009C2F9370111102C080E090E00E945F1FA2
:100CB00087CF8D2F9C2F9370111102C080E090E0A0
:100CC0000E94381F7DCF612F8D2F0CDE79CF8C2FA6
:100CD000837081F5111174CF4D2F42954695477061
:100CE000440F440F2D2F2F7030E0042E02C0220F2E
:100CF000331F0A94E2F790E080E0D4FF09C08FE050
:100D000090E002C0880F991F4A95E2F78095909570
:100D1000C695C695C370822B932BC23039F040F430
:100D2000C13011F042D14CCF39D14ACF45D148CF53
:100D300033D146CF8695112311F08C2F81708823F3
:100D400009F43ECF4D2F429546954770440F440F0E
:100D50002D2F2F7030E0042E02C0220F331F0A9473
:100D6000E2F790E080E0D4FF09C08FE090E002C09D
:100D7000880F991F4A95E2F780959095C695C6957C
:100D8000C370822B932BC23039F040F4C13011F084
:100D900067D116CF5ED114CF6AD112CF1AD110CF3E
:100DA000CF70112321F08C2F28D18D2F43CF8D2F81
:100DB0009CDE8C2F30D104CFD23F39F160F4D03F8C
:100DC000B9F0D13F81F0112309F43CC00111E3CE09
:100DD0008C2F8F711EC0D33FF1F0D43FA1F78091CB
:100DE0004A0382FD20C08C2F8F71112319F311C08B
:100DF000112339F0053008F0E3CE8C2F8F711BD111
:100E0000DFCE063008F0DCCEF8CF8C2F8F711111B9
:100E1000D1CFF3D0D5CE112321F08C2F8F71E3D019
:100E2000CFCEDED0CDCE112329F063E08C2F8F7191
:100E300055D5C6CE81E069D5023008F4C1CE82E036
:100E400064D5BECE002359F0D93309F01DCFEFEFA2
:100E5000F7EE23E0E150F0402040E1F713CF8C2F74
:100E60008F71A8CFEE2009F4B4CE75D480FDB1CE39
:100E7000F60115826AD4C1D0C60117D066D4CBD092
:100E8000A8CE0F931F93CF93DF93EC0168817981F4
:100E90008D81A4D18C01F2D07ED0B801CE012ADEA2
:100EA000DF91CF911F910F910895CF93DF93EC01C4
:100EB0008C81882381F0CE0113DC81110FC04FD4C7
:100EC000882349F08D81882331F080914A0382FF85
:100ED00002C082E01AD5DF91CF910895CE01D1DF13
:100EE000CE01ECDBF8CF90E080E00E94381F90E06C
:100EF00080E00E945F1F5AD4E4D40E94421D0C94EB
:100F0000291D0E946020EFCF41D4FBCF92959F70A6
:100F1000963091F058F4925F9F70923058F4803F71
:100F200019F030F4883E30F481E008959A5FF4CFF0
:100F3000843FD1F380E00895883EB0F3813FD1F73C
:100F4000F3CFFC012481222321F0808191813DD1C6
:100F5000DDCF80E00895A6E0B0E0E1EBF7E00C948F
:100F6000DE282696E2E00C94FA28A7E0B0E0EBEB4E
:100F7000F7E00C94DE282796E2E00C94FA28089516
:100F8000FECF0895FDCF0895FADFFCDF90931D0298
:100F900080931C0208950895F7CF089520911C02B4
:100FA00030911D02822B932BEFCF20911C023091A8
:100FB0001D0282239323E8CF20911C0230911D0251
:100FC00082279327E1CFDBCF0895FDCF0895D7CFB8
:100FD0000895FDDFFADF90931B0280931A020895B3
:100FE00090E080E0F6CF21E030E0A90102C0440F9C
:100FF000551F8A95E2F7CA01ECCF21E030E002C02C
:10100000220F331F8A95E2F780911A0290911B02FA
:10101000822B932BDECF21E030E002C0220F331F62
:101020008A95E2F72095309580911A0290911B02E3
:1010300082239323CECF21E030E002C0220F331F62
:101040008A95E2F780911A0290911B0282279327DA
:10105000C0CF20911A0230911B02822B932BB9CF63
:1010600020911A0230911B0282239323B2CF209148
:101070001A0230911B0282279327ABCF0895262FA7
:10108000277091E001C0990F2A95EAF723E0769541
:1010900067952A95E1F7660F771F660F771FFA01AC
:1010A000E60FF71F50E040E0682F70E08191DF010C
:1010B00011979B01042E02C0369527950A94E2F7FA
:1010C000217021952827292328272C934F5F5F4FD4
:1010D0004430510559F70895A82FA77023E096953D
:1010E00087952A95E1F7880F991F880F991FFB01B3
:1010F000E80FF91F50E040E080E0219130E00A2E37
:1011000002C0369527950A94E2F721703327042E02
:1011100001C0220F0A94EAF7822B4F5F5F4F4430E1
:10112000510559F70895262F953068F48F3058F4FB
:10113000682F70E08FE0989F600D711D112442EFC1
:1011400051E0822F9CCF0895292F953058F48F308D
:1011500048F490E062EF71E03FE0239F800D911D25
:101160001124BACF80E00895B0E0A0E0EAEBF8E007
:101170000C94D7287C0100911A0210911B028091D7
:101180001C0290911D02082B192BCFE0D0E0CC243B
:10119000C394D12CBC2EC6010C2E02C0880F991FFF
:1011A0000A94E2F780239123892B49F4219790F741
:1011B000B12C8B2DCDB7DEB7E9E00C94F328B70145
:1011C0008C2F27D6019791F3F4CFCF93DF93EC01C7
:1011D000CBDFBE011ED6DF91CF9108951F93CF9331
:1011E000DF93EB019091F101992331F0CB01EDDF19
:1011F000DF91CF911F910895882351F0CB01B4DF87
:10120000182F682FCE018FDFBE01812F02D6F0CFBD
:10121000CB019ADF182FF8CF1F93CF93DF93C091A4
:101220001E0217E080911F028C1304C0DF91CF9142
:101230001F910895D0E01C9FF0011D9FF00D112417
:10124000E05EFD4F2081318142815381648175814F
:1012500086818BDE2196C770E5CF209158023091B0
:10126000590240915A0250915B0260915C02709168
:101270005D0280915E0279CECF93DF9380915E0212
:10128000807F09F04BC080915D02882309F446C03D
:10129000E0911E0250911F02C0915902D091580254
:1012A00060915A0270915B0247E05E17B9F18E2F90
:1012B00090E0E49FF0011124E05EFD4F24812223A1
:1012C00081F1489FF001499FF00D1124DF01A05EDC
:1012D000BD4F11962C9111972C1323C02C912D13D7
:1012E00020C015962C91159721111BC012962D9197
:1012F0003C91261B370B283C310598F480915E0207
:101300008F70806180935E02EA5DFD4F80818F70F7
:101310008061808388E592E0C8DD7EDFDF91CF9138
:101320000895FC013196E770C0CF482F20911E022E
:1013300090911F0257E0291302C080E0089530E029
:10134000529FF001539FF00D1124E05EFD4F81810B
:10135000681306C08081481303C085818111EECFD8
:101360002F5F3F4F2770E7CFA4E1B0E0EAEBF9E051
:101370000C94D4288C0186E0F801DE011F960190C0
:101380000D928A95E1F7F8018481E58098E5A92E10
:1013900092E0B92E90915C0291111AC08823A9F0B5
:1013A000EE2089F0C801CDDDF82E882361F087E0BA
:1013B000F801D50101900D928A95E1F7C5018ADA0D
:1013C0005BDF4BDF59C0C80170DDFF24F39454C0CC
:1013D000C080D18082809380F0905D0220915A027B
:1013E00030915B02A401421B530BFF2009F4E9C0BA
:1013F000483C510508F09CC0882309F43DC09091F9
:10140000590280915E02282F207F09F056C09D115D
:1014100014C090915802C91210C0E11048C08F70DA
:10142000806180935E0219DF88E592E03EDD809165
:101430005E02F8018683F12C1FC0E11038C06D2DCB
:101440008C2D73DF6D2D8C2D70DFE82E8111F3CF85
:10145000CF86D88A8F859889B8DE292F22952F705C
:10146000243078F49F702230A0F09923B1F0F80175
:101470009681907F91F4FE2C8F2D6496ECE00C9475
:10148000F0282A5F2F70223060F0C8010EDDEF2CAB
:10149000F2CF992311F0882371F3805E883058F3DE
:1014A000F4CF803F40F3815F833078F7E4CF8091C1
:1014B0005E02816080935E02BECF9D1112C090914A
:1014C0005802C9120EC0E1100CC08683C801EDDCC1
:1014D00087E0F801A8E5B2E001900D928A95E1F766
:1014E00070CFC8012EDD882309F46DCFEE2009F4FA
:1014F0006ACF80915E02803280F020915802309154
:101500005902398728879B868A8690915C029C873E
:101510001D868E87CE010896C8DC87E0F801A8E515
:10152000B2E001900D928A95E1F7A6DE96DE4DCFEE
:1015300090915E02292F207F89F4682D9A8A898AEA
:10154000A6017A899E2D07DD88E592E0AEDC87E072
:10155000F50111928A95E9F780DE6DCF882309F4B1
:101560008BCF809159028D110FC080915802C81203
:101570000BC0E11009C09683C80197DC87E0F50134
:1015800011928A95E9F778CFC801DBDC882309F44A
:101590001ACFEE2009F417CF80915E02803208F452
:1015A000BCCF20915802309159023A8329839C8202
:1015B0008B8290915C029D831E828F83CE01019667
:1015C000ABCF483C5105A8F5882309F4FECEFE2C8C
:1015D000EE2009F4F8CE809159028D111EC0809141
:1015E0005802C8121AC080915E0280FD0DC0982F6B
:1015F000907F51F08683903F09F468CF982F907FB9
:10160000905F8F70892B61CF87E0F801A8E5B2E089
:1016100001900D928A95E1F72FCFC80192DC8111DC
:101620007CCF80915E02816080935E02C8013DDCC8
:1016300023CF682D9A8A898AA6017A899E2D8BDC10
:1016400087E0F50111928A95E9F7BBCEAEE0B0E0F4
:10165000ECE2FBE00C94DD28288739874A875B871A
:101660006C877D878E87CE0108967EDE8823A9F061
:101670006C85662339F0288539854A855B857D85AB
:101680008E8573DC17E080911E0290911F028913F2
:101690003BC02E96E3E00C94F92887E0FE013896D3
:1016A000DE01119601900D928A95E1F78C858823D1
:1016B00049F320911F0230E0C901019687709927F4
:1016C00040911E024817190691F097E0929FD001B1
:1016D000939FB00D1124A05EBD4FFE013196019085
:1016E0000D929A95E1F780931F0296DDCBCF0CDC2B
:1016F00010921F0210921E0287E0E8E5F2E0DF017F
:101700001D928A95E9F7BECF819FC0011124805EAA
:101710009D4F2ADE882309F4BCCFE0911E021E9F54
:10172000F0011124E05EFD4F20813181428153811F
:1017300064817581868119DC80911E0290E001969A
:101740008770992780931E029ECF8091870286958D
:101750008695869508958091870287700895909167
:101760008702977081E009F480E008958091B302C8
:1017700008959091B302892B8093B30208958095C8
:101780009091B30298239093B30208951092B302FC
:1017900008959091B202892B8093B20208958095AA
:1017A0009091B20298239093B20208951092B202DF
:1017B00008950895FECF089590918802292F282337
:1017C00029F08095892380938802F4CF08950895A5
:1017D000FECF089590918902292F2823281721F000
:1017E000982B90938902F4CF089590918902292F24
:1017F000282329F08095892380938902E9CF0895D1
:1018000080918902882321F01092890280E0E0CF44
:101810000895CF93C091B3028091B202C82B8091FA
:101820008902882329F0C82B0E94861F8111E8DFD6
:101830008C2FCF910895CF93DF93C0910601D09163
:101840000701E7DF8883C0910601D091070148E0D6
:1018500050E06FE772E0CE010E949D29892B59F07C
:1018600088E0FE01AFE7B2E001900D928A95E1F7C2
:10187000CE010E94071FDF91CF910895CF93DF9390
:10188000C0910401D0910501C4DF8983C091040196
:10189000D091050140E250E06FE572E0CE010E9478
:1018A0009D29892B59F080E2FE01AFE5B2E001905D
:1018B0000D928A95E1F7CE010E94141FDF91CF911E
:1018C00008950E94EF1E882329F08091490387FF25
:1018D00001C0D4CFB0CF0895FECF089590914A03B0
:1018E00092FF0EC098E0899F90011124622B6093B3
:1018F000870283DB80918702869586958695ECCF5B
:101900007CCB1092870280E0E7CF90918702809590
:10191000892380938702282F277059F4891749F06B
:1019200090914A0392FF05C086958695869573DB54
:10193000E8CF089590914A0392FB222720F92817B7
:1019400049F080FB92F990934A0389E493E04BD0ED
:1019500082E0DBCF089580914A0382FB882780F9DB
:1019600091E08927E7CF81E0E5CF80E0E3CF60E039
:1019700070E0CB0147C460E070E0CB013DD4F7CF0D
:10198000A4E0B0E0E6ECFCE00C94DE287CD387D346
:101990001C82CE0104969AD381E090E090931D02C0
:1019A00080931C029FD31A8219828A8184618A8360
:1019B000CE010196A8D31B82CE010396B6D38DD655
:1019C000DADF2496E2E00C94FA28DACF08956DC3AA
:1019D00008955AC308956FC308957EC3089582C3BE
:1019E000089585C308958FC3089594C308959DC332
:1019F0000895A1C30895E0C308950AC40895A6E018
:101A0000B0E0E5E0FDE00C94DC280E948D218C0123
:101A10008091B4029091B5028017910781F01982EC
:101A20001A820E948D21682F49815A81792F80E086
:101A300090E00E943D041093B5020093B4022696F4
:101A4000E4E00C94F8280E9499216093C4027093FA
:101A5000C5028093C6029093C7026093C002709340
:101A6000C1028093C2029093C3020895089508951D
:101A7000FDCF08950895FEDFFBCF0895FECF0895B2
:101A80000895FEDFFBCF8CEF9FE019D5F0DFF3CF99
:101A900081E00895FDCF0895FBCF0895089508953E
:101AA0000895FCDFFCDFFCCF94DF811101C08DDFE6
:101AB00088EC92E090DF89E493E093DF0E94D71AEC
:101AC0008CDF6ADA80911A0290911B027ECA0E9412
:101AD00084215CD4E9DF0E941B040E946F1A0E94DB
:101AE000DA180E94FE17CDCFA6E0B0E0EAE7FDE0ED
:101AF0000C94D228CFDF81110DC081DF0E94D11854
:101B00000E946E1A0E94641D0E9425042696EEE033
:101B10000C94EE284DD426EB822E22E0922E640106
:101B200010E0F601E190F1906F01812F7CD31F5FEF
:101B3000153009F447C0E816F90699F38091C802F8
:101B400081FD7AD3A9DF782E10E066246394812F7B
:101B50006AD37C01F401A190B1904F018A159B05D5
:101B600061F100E0CC24C394D12CAE24BF24C50184
:101B70008C219D21892BC1F07720B1F009831A8334
:101B80000E948D219C838B836D8221E0C7018C2173
:101B90009D21892B09F420E049815A816B817C8148
:101BA0008D81922F0E943D040F5FCC0CDD1C0F3005
:101BB000F1F6F4013297F182E0821F5F153039F6B9
:101BC00042DF9CCFE816F90609F0B8CF96CF1F93F5
:101BD000CF93DF9320D1EC01C11580E5D807F0F554
:101BE000C11580E4D80708F09AC0C03ED10520F5A1
:101BF000CD3CD10508F082C0C83AD10578F4C53A89
:101C0000D10508F073C0C130D10519F1209709F151
:101C1000C430D105F0F4D0E0C0E01BC0C33CD10516
:101C2000D0F7C85AD0E0CC0FDD1FC659DE4F09905F
:101C3000D881C02DD4640DC0C11580E2D80708F04A
:101C4000CDC0C11581E0D80708F05AC0C83ED10503
:101C500010F7CE01DF91CF911F910895C03682E534
:101C6000D80718F5C03482E5D80708F068C0C0323C
:101C700082E5D80708F05CC0C11582E5D80708F4F2
:101C800093C02C2F2695269580E2289F9001112441
:101C90008C2F8370C1E0D0E002C0CC0FDD1F8A958D
:101CA000E2F7C22BD32BDD68D4CFC03A82E5D80748
:101CB00060F4C03882E5D80708F456C0CF71D0E090
:101CC000DC2FCC27C46FD06AC4CFC03C82E5D807D4
:101CD00008F45FC0C03E82E5D80708F09CCFDC2F37
:101CE000CC27CC27DF71C06FD06AB3CFC55AD0E004
:101CF000C056DE4FC881D0E0D064ABCFD065A9CF4D
:101D00008D2F2BD1182FCE01992785D0C12FD0E050
:101D1000DC2FCC27CC27DF71C82BD92B9ACFCE0153
:101D2000992779D0CC27DF70C82BD92BD06A91CFD7
:101D3000CF71D0E0DC2FCC27C16FD06A8ACF2C2F97
:101D400026952695277080E2289F900111248C2FDC
:101D50008370C1E0D0E002C0CC0FDD1F8A95E2F7AE
:101D6000C22BD32BDC6875CF2C2F26952695277098
:101D700080E2289F900111248C2F8370C1E0D0E075
:101D800002C0CC0FDD1F8A95E2F7C22BD32BDA6895
:101D900060CF8C2F8F71E1D0C82FD0E0DC2FCC2703
:101DA000CC27DF71D06255CF8C2F8F71D6D055E004
:101DB000D695C7955A95E1F7CF70D0E0DC2FCC27A8
:101DC000282F30E084FF06C044E0220F331F4A95DD
:101DD000E1F73327C22BD32BD0693BCF8D2F8F71E7
:101DE000BCD0182FCE01992716D0C12FD0E0DC2F00
:101DF000CC27CC27DF71C82BD92BD4CF462F7530F9
:101E000028F46F3018F4672F0C94030390E080E0FF
:101E10000895F4DFDCCE82389105B9F1B0F4813356
:101E2000910509F47DC048F48932910509F46DC02B
:101E30008A32910509F47BC008958533910509F430
:101E40005FC08933910509F10895833E9105D9F169
:101E500038F4803E910529F1823E910579F108958B
:101E6000863E9105D9F1873E910509F43EC0843E36
:101E7000910541F520914A0321FF24C08091490337
:101E800084FD19C087EE90E00895209149032370E6
:101E900009F05AC020914A0323FF14C089E290E060
:101EA00008952091490320FD38C030914A0330FF46
:101EB00009C024FF43C090E080E0089520914903C9
:101EC00022FDF7CF08952091490322FD3AC03091B9
:101ED0004A0330FD39C024FFF5CFEDCF20914903EF
:101EE00023FFF0CF24FDE7CFCDCF2091490323FD81
:101EF0002EC030914A0331FFEECF84EE90E008957A
:101F00002091490325FFDECFC9CF2091490325FD4C
:101F100021C020914A0323FFD5CF89E390E0D2CF9F
:101F20002091490326FFCECF8AE290E008952091C8
:101F3000490326FFC7CF81E390E0089583EE90E048
:101F4000089582EE90E0089580EE90E0089586EE88
:101F500090E0089585E390E008959091490392FF01
:101F600010C041E0282F2471243009F040E031E016
:101F7000282F2871283009F030E0431711F02CE0A9
:101F8000822793FF10C041E0282F2471243109F0EB
:101F900040E031E0282F2871283109F030E0431764
:101FA00011F02CE0822730914A0330FF10C051E03D
:101FB000282F2171213009F050E041E0282F2871AD
:101FC000283009F040E0541711F029E0822731FF52
:101FD00010C041E0282F2171213109F040E031E0AB
:101FE000282F2871283109F030E0431711F029E03B
:101FF000822794FD877E089580E00895CF939C0109
:10200000205E3245C1E02032310538F4FB01C58144
:10201000C11103C08F710E94C5038C2FCF91089509
:102020009C01FB018581882391F02B35FCE73F075C
:1020300061F02C359CE7390729F02A353C4741F4FB
:1020400092DC01C088DC80E008958FDCFCCF81E069
:1020500008959C01FB018581882399F02130FCE7DC
:102060003F0761F023309CE7390739F021153C47E1
:1020700049F40E94ED0380E00895A9DC0E94F10379
:10208000FACF81E00895089590E080E00E94C02991
:1020900021E0833E9E4F09F020E0822F089563EEF9
:1020A0007EEF90E080E00C94DF296FEF7FEF90E00F
:1020B00080E00C94DF29CF93DF93EC0182E090E085
:1020C0000E94B3298883DF91CF910895FC0160813C
:1020D00082E090E00C94C52983E090E00E94B3294F
:1020E00090E00895682F83E090E00C94C529CF9389
:1020F000DF93EC0184E090E00E94C02999838883FB
:10210000DF91CF910895FC016081718184E090E0BE
:102110000C94DF29CF93DF93EC0186E090E00E94DE
:10212000B3298883DF91CF910895FC01608186E017
:1021300090E00C94C5294F925F926F927F928F929C
:102140009F92AF92BF920F93CF93DF93EC0188E001
:1021500090E00E94BB292B013C01688359828A834D
:102160007B821C821D821E821F8283E290E00E947D
:10217000B329282F30E040E050E060E070E080E0DC
:1021800090E000E20E940529242935294629572993
:10219000288339834A835B836C837D838E839F830B
:1021A000DF91CF910F91BF90AF909F908F907F90D4
:1021B0006F905F904F9008950F93CF93DF93EC0152
:1021C000488159816A817B8188E090E00E94D7290B
:1021D000288139814A815B816C817D818E819F81DB
:1021E00000E20E942029622F83E290E00E94C5292C
:1021F000DF91CF910F910895AB01BC018FE090E08A
:102200000C94D729AB01BC0183E190E00C94D72951
:10221000682F8EE090E00C94C5290895FECF0895B4
:102220000895FECF0895E82FF0E0EE0FFF1FEB5A60
:10223000FC4F808191810895089580EA8A95F1F795
:10224000089500C00895F9CF0895F894E82FE29515
:10225000EF70F0E031A1282F2F7081E090E001C0F5
:10226000880F2A95EAF7982F9095932391A392A12E
:10227000892B82A3789408950F931F93CF93DF93B4
:10228000C2EBD1E089918F3F09F0DFDF81E0C73BEE
:10229000D807C1F7C3EAD1E002EB11E089918F3F83
:1022A00009F0D3DF0C171D07C9F7DF91CF911F91FC
:1022B0000F910895AF92BF92DF92EF92FF920F932A
:1022C0001F93CF93DF938C01D62EC62FD0E0CE0183
:1022D0008E549E4F7C01FC0120812F3F09F449C0A0
:1022E000F894E22FE295EF70F0E031A12F7081E0D9
:1022F00090E001C0880F2A95EAF7932F982B91A3BD
:1023000092A18095892382A378949BDFE3EAF1E090
:1023100041E050E0B12CA12C21912F3FA1F1A22F3F
:10232000A295AF70B0E090968C9190E02F7002C0B3
:10233000959587952A95E2F780FD25C0CA01A82AC0
:10234000B92A440F551F81E0E23BF80729F7F7014E
:1023500080818F3F09F079DF61E0A114B10409F4B5
:1023600060E08D2D70DFCC0FDD1FC00FD11FB98253
:10237000A882DF91CF911F910F91FF90EF90DF9096
:10238000BF90AF90089590E080E0D9CF75DF8AE0EC
:10239000E5E5F3E0DF01982F1D929A95E9F7EBE46C
:1023A000F3E0DF011D928A95E9F785E039D036CF59
:1023B000AAE0B0E0EEEDF1E10C94DB288E010F5FB6
:1023C0001F4F8AE0F80111928A95E9F7F12C6F2DE1
:1023D000C80170DFF394F5E0FF12F9CF4AE050E056
:1023E000B8018BE493E00E949D2921E0009709F455
:1023F00020E0892B41F08AE0F801ABE4B3E00190E2
:102400000D928A95E1F745E065E573E08BE493E092
:1024100008D0182F06DF812F2A96E5E00C94F728C4
:102420000895B0E0A0E0E7E1F2E10C94D8286C0157
:102430007B01042FC22F222379F081E08093CB020D
:102440000E948D219093CA028093C90280E0CDB78B
:10245000DEB7E8E00C94F428D091CB02DD23B1F391
:102460008091C9029091CA020E941E21059770F3C3
:1024700010E0000F111FA801B601C7010E949D299D
:10248000892B31F0A801B601C7010E94AA29CD2FDE
:102490001092CB028C2FDBCF27CB08950E942721EF
:1024A0000E942023F0DA0E94382311DB0E9441238E
:1024B0000E944423F1DF0E945A23F3DAF9CF90936C
:1024C000EB018093EA0108950F931F93CF938C0142
:1024D000FB01C581CC2309F43BC048D98272F801C5
:1024E000E052F847EB30F10530F4E35EF54D0C9423
:1024F0009D287CD5C0E08C2FCF911F910F9108951E
:10250000882321F067D5F6CF8823E1F357D5F2CFA2
:10251000882321F022D2EECF8823E1F313D2EACF31
:10252000882321F034D2E6CF8823E1F323D2E2CF0F
:10253000882321F046D2DECF8823E1F335D2DACFEB
:10254000882321F0F1D0D6CF8823E1F3DED0D2CF9B
:10255000C1E0D1CFEF92FF920F931F93CF93DF9300
:102560009B01682F31110EC0442329F0E82FF0E0C1
:10257000EE50FD4F6491762F862FCDB7DEB7E6E0A3
:102580000C94F628C32FD0E0E82FF0E0442321F08C
:10259000EE50FD4FE491F0E046E0249FC00111248D
:1025A0000FEF10E0B8010E945428AB01822F90E099
:1025B000880F991F25E5249FB001259F700D1124D8
:1025C000861B970B982F990F980FB8016C1B7D0BEA
:1025D0006E9FD0016F9FB00D7E9FB00D11248B2F89
:1025E000939F90011124232F3327B801621B730B93
:1025F0006E9F90016F9F300D7E9F300D11247801EA
:10260000E91AF108EC9EB001ED9E700DFC9E700D74
:102610001124672F7727061B170B0E9FE0010F9FD2
:10262000D00D1E9FD00D11247D2F9E2F42305105BD
:1026300099F048F44115510569F04130510581F098
:102640007B2F832F07C04430510569F080F046305E
:102650005105B1F7692F91CF9B2F8D2F7E2FFACF88
:102660007E2F932FF7CF9D2F7B2F8E2FF3CF732F9E
:102670009B2FFBCF41E06ECF0895FCCF0895909142
:102680000B01291B922FE091E401F091E501242F29
:10269000462F682F892F90E009950895CF93DF93F7
:1026A000762FE901682F842FE8DF962F672F9E0190
:1026B000482F892FE4DFDF91CF91089580915F0348
:1026C000982F9C7F29F48370846080935F03089522
:1026D0008C3AE8F38370886AF8CFEFE5F3E085E0A1
:1026E000808311828FEF828383831482CF0183C919
:1026F00090916303933018F49F5F90936303882352
:1027000019F08FE593E077C9089581E0F1CF9091BA
:102710006303992319F0915090936303882319F070
:102720008FE593E068C9089581E0F1CF0F931F937F
:10273000CF9380915F0380FF09C0E091E801F091A1
:10274000E9010995CF911F910F910895C0910D0155
:102750000091E4011091E50180910E01C81768F71E
:1027600080910B019C2F981B892F20E040E060E0B6
:1027700090E0F8010995CF5FEFCFEF92FF920F93B2
:102780001F93CF93DF93D82F162F042F80915F03D1
:1027900080FF0BC0C0910D01E090E401F090E501D5
:1027A00080910E01C81730F0C1DFCDB7DEB7E6E08B
:1027B0000C94F62880910B019C2F981B892F202FB9
:1027C000412F6D2F90E0F7010995CF5FE9CF762F6C
:1027D00090915F0390FF08C0682F842F4EDF962FE3
:1027E000672F482F892FC9CF0895CF93DF93EC012E
:1027F000EC81F0E0E351FE4F4491EFE5F3E06281BC
:102800008181E5DF8C818F5F8C83DF91CF9108958B
:10281000CF93DF93EC01EFE5F3E0438162818C819C
:10282000D6DF8C818F5F8C83DF91CF910895CF931A
:10283000DF93EC01409162039C81892F817090FDB0
:10284000842F692F627091FD642F92FF40E095DF25
:102850008C8190E00196877099278C83DF91CF91CE
:102860000895B0E0A0E0E7E3F4E10C94D928D82F74
:10287000F62E042FE22E90915F0390FF21C0E92FE6
:10288000E695E695AE2FB0E0A954BE4F8C918093AB
:1028900027039C7F9430C9F46D2F7F2D842FEDDEAC
:1028A000962F672F482F892F68DFD0936003F0920F
:1028B000610300936203EE2019F08FE593E09BD84B
:1028C000CDB7DEB7E7E00C94F528823019F400911B
:1028D0006203EBCF863019F4D0916003E6CF8930E4
:1028E000D9F3893111F7E9518E2F8170D82EE695F1
:1028F000F0E0E351FD4FC49110E060910F01161715
:1029000010F014DFD2CF1C9FC001112470E00E9490
:1029100054288D2FD1100BC0860F20910D01210F4F
:102920003327331F402F6F2DB9DE1F5FE6CF861B85
:10293000F4CFEFE5F3E09181282F4381628188E0B5
:10294000890F8FCF81E0F5CFEFE5F3E09181282F5C
:102950004381628188EF890F84CF81E0F5CFEFE575
:10296000F3E0628128E0620F08F46FEF282F4381C3
:10297000818177CF81E0F3CFEFE5F3E0628128E05A
:10298000621B08F460E0282F438181816ACF81E0D7
:10299000F3CFEFE5F3E0438128E0420F08F44FEF77
:1029A000282F628181815DCF81E0F3CFEFE5F3E0F5
:1029B000438128E0421B08F440E0282F6281818196
:1029C00050CF81E0F3CF20E04CCFEF92FF921F93E6
:1029D000CF93DF93EC0110E0EE24EA94F12C6091A8
:1029E0000F01161768F0A2DE9A818C8190FF1DC03E
:1029F0008F5F8C83DF91CF911F91FF90EF900895AF
:102A000020910D01210F3327331F70E0C7010E9471
:102A10006828962F8C814091620360916103199F11
:102A2000800D11243BDE1F5FDACF8150E2CFB0E092
:102A3000A0E0EDE1F5E10C94D728FC018281DFEF05
:102A400080FFD1E0C0E00091E4011091E5018091A8
:102A50000F01C81790F06ADE8091CD02D13009F0E5
:102A60004CC0811102C080910F0181508093CD0232
:102A7000CDB7DEB7E9E00C94F32880910D01909179
:102A80000B01891B8C0F20E040E060E090E0F80132
:102A9000099594E0E92EF12CB12CCC2ED12C80910B
:102AA000CD028B0D81311CF18F70082E000C990B1B
:102AB000C816D906A9F420910D012C0D3D2D311D0C
:102AC000809162038E9DA0018F9D500D112455951C
:102AD0004795559547956091610380916003DEDDD0
:102AE000BD0EF1E0EF1AF108D1F6CF5FB0CF87FF4E
:102AF000DCCF90910F01890FD8CF90E001966091C3
:102B00000F0170E00E946828B1CF0F931F93CF93FD
:102B1000C0910D010091E4011091E50180910E0139
:102B2000C81748F1C0E00091E4011091E5016091FF
:102B30000F01C61768F1FADD209109018091CC02DE
:102B4000820F8093CC0290910A01920F90930A0118
:102B5000191654F4082E000C990B40910F014150A6
:102B6000550B841795071CF0219520930901CF91EF
:102B70001F910F91089580910B019C2F981B892F15
:102B800020E040E060E090E0F8010995CF5FC6CF1B
:102B9000EC2FF0E070E0CF010E94682820910D0139
:102BA000820F2091CC02022E000C330BE217F307A8
:102BB0009CF020910A01022E000C330B2E173F07C8
:102BC0005CF0282F30E040916203609161038091B6
:102BD000600364DDCF5FABCF90910B01891B20E0D8
:102BE00040E060E090E0F8010995F4CFB0E0A0E0AB
:102BF000ECEFF5E10C94D428EC014C81042F10E0AB
:102C00009801D8010E94A9289B01AC010E94BE280E
:102C10004B015C01E0E2F0E0E01BF10BA5E5B0E068
:102C2000AC019B010E94BE286B017C019F01DF016A
:102C30000E94A3289B01AC010E94C8289B01AC0103
:102C4000280D391D4A1D5B1DC701B6010E947B2856
:102C5000F22E822F90E039E23F1518F143E0249FD5
:102C60009001112435952795122F109500E085E5E8
:102C7000E82EEF1880910F01081718F157DD9C819D
:102C800081E0992319F0903219F48FEF80930801B5
:102C900080910801890F8C83CDB7DEB7ECE00C94EE
:102CA000F02825E530E0A901481B590BCA019A011B
:102CB000220F331F280F391F37FFD4CF2F5F3F4F0D
:102CC000D1CF8E2D01FD8F2D20910D01200F3327A7
:102CD000331F412F60916103E1DC0F5FCBCF0F9376
:102CE0001F93CF93DF938C01D0E0C0E090910F0150
:102CF0009C171D0609F06CF419DDF801848190E041
:102D00000196817099278483DF91CF911F910F9154
:102D10000895F801448120910D012C0F3D2F311DA4
:102D2000609161038091600396959C171D0641F0A8
:102D30003CF0442339F040916203B0DC2196D6CFB9
:102D40004423C9F340E0F9CFB0E0A0E0EAEAF6E1BD
:102D50000C94D028FC016280448081E08483EDEEF5
:102D6000F1E07490ECE6F2E0E491C0916203C69564
:102D7000C158D0E0CC0FDD1FCD2FDD27812C25E001
:102D8000922EAA24AA94B12C55245A94E719EE2E17
:102D9000F12C80910F01881630F0C8DCCDB7DEB77A
:102DA000E0E10C94EC28C82CD12C82E0861568F068
:102DB0009C9CF0019D9CF00D1124E253FD4F8091ED
:102DC0006003808380916103818341101BC09C9CC0
:102DD000F0019D9CF00D1124E253FD4F13821282ED
:102DE00020910D012C0D3D2D311D9C9CF0019D9CD1
:102DF000F00D1124E253FD4F4281618180814EDC50
:102E00008394C7CF9C9C80019D9C100D112402537C
:102E10001D4FF80183818823F1F081508383859DC4
:102E2000C0011124648170E00E945428FB01FF2737
:102E3000E351FE4F8491E82FE719E59DC00111246D
:102E4000B7010E94542880916203689FB001112449
:102E5000F8017283C5CF0E948229B5010E946828BB
:102E60008C179D070CF0BCCFF2E0F61598F40E9489
:102E70008229B5010E946828F80180830E94822976
:102E8000209161032695622F70E00E946828280F28
:102E9000F80121839C9CF0019D9CF00D1124E253CC
:102EA000FD4F128280916203893C58F088EC9C9C13
:102EB000F0019D9CF00D1124E253FD4F8483838328
:102EC0008FCF8431A0F784E1F2CFEFE5F3E080818A
:102ED0008E7F8083CF010E94FB0C1092280326CCAA
:102EE000EFE5F3E080818E7F8083109228031ECC73
:102EF0001092280380912503811109C081E08093FD
:102F0000250380915F03817080932403E9CF0895A6
:102F100060915F036695669570E04BE050E080E15C
:102F200091E00E949029892B19F481E08093280375
:102F30000E948D2190931F0380931E03089590910A
:102F40005F0390FF25C09370811123C0946090931C
:102F50005F03662321F08FE593E00E94FB0C6091F4
:102F60005F036695669570E04BE050E080E191E08C
:102F70000E949029892BA9F01092280381E0809368
:102F800021034091620360916103809160031BCD36
:102F900008958B3210F0986ADACF880F880F982B3B
:102FA000D6CFB6DFEBCF682F90915F0396959695BD
:102FB00081E0890F8B3208F081E0C1CF81E0F3CF4F
:102FC000682F90915F03969596958FEF890F09F47E
:102FD0008AE2B5CF81E0F4CF61E0B1CFEFE5F3E075
:102FE00080818160808386958695F6CF80915F038E
:102FF00080FF01C06ACFF2CF60E0A1CF80912603AD
:1030000081111FC08FE593E00E94F90C80915F034E
:103010008C7F29F462DB8FE593E00E94F90C4EDB94
:1030200010922803E091E201F091E301099580916B
:103030005F0380FF03C086958695DEDF81E0809385
:1030400026030895EFE5F3E0808181608083869513
:103050008695D2CF10922503809124038111F2DF4F
:1030600057CF0F931F93CF93DF938091280388232B
:10307000C1F180912703E0915F03E695E695E81B97
:10308000E0932003823091F5F0E0E751FE4FE491A8
:10309000CE2FD0E005EF13E180912103882361F06A
:1030A000109221030E948D2190931F0380931E0391
:1030B00010922303109222030E948D21E0911E039F
:1030C000F0911F038E1B9F0B8F3F9F4750F4EC0F17
:1030D000FD1FF0931F03E0931E038EE193E0F801C0
:1030E0000995DF91CF911F910F910895863049F492
:1030F000F0E0EA51FE4FE491CE2FD0E008E014E179
:10310000CBCF893051F4E695F0E0ED51FE4FE491DC
:10311000CE2FD0E005EE14E1BFCF8F3051F4E6950D
:10312000F0E0E052FE4FE491CE2FD0E007E115E150
:10313000B3CF853149F4F0E0E352FE4FE491CE2F56
:10314000D0E005E815E1A8CFC8E2D0E006EF15E130
:10315000883109F4A1CF833239F4EBEDF1E0C59168
:10316000D49107E114E198CFC4EFD1E00FE616E166
:10317000843209F491CFC0EDD7E00CE313E185323E
:1031800009F08ACF8E2F63E00E944828E92FF0E0F3
:10319000E852FE4FE491CE2FD0E004EA16E17CCF56
:1031A00008955FCF08958DE28093670387E693E0EB
:1031B0000C94F70C87E693E00E94F50C809167036E
:1031C00082FFF1DF80916703803320F0877088628F
:1031D0008093670390916703892F817090FF04C0EB
:1031E000892F869586958695D8C080916703982FFC
:1031F000969596959695953040F49F5F990F990F07
:10320000990F8770892B8093670380916703816092
:103210008093670387E693E00E94F70C8091670331
:10322000869586958695B9C080916703982F987F7B
:1032300089F0885080936703887F91E009F490E0DB
:103240008091670390FB80F98093670387E693E0A2
:103250000E94F70C809167038695869586959DC0A0
:103260008091670380FD12C0816080936703813085
:1032700019F489E08093670387E693E00E94F70CD6
:103280008091670386958695869587C0089580917D
:10329000670380FF09C08E7F8093670387E693E012
:1032A0000E94F70C80E079C008958091670380FF49
:1032B00001C0EDCFD5CF90916703892F8695869574
:1032C00086958F5F8F7197708630E0F4880F880F36
:1032D000880F892B8093670380916703887F91E033
:1032E00009F490E08091670390FB80F98093670375
:1032F00087E693E00E94F70C809167038695869598
:1033000086954BC090936703E7CF863008F085E041
:10331000909167039770282F220F220F220F922B74
:1033200090936703987F21E009F420E09091670370
:1033300020FB90F99093670330C0E7DF87E693E0C6
:103340000C94F70C9C01FB018581882321F122302C
:10335000F8E73F07E1F040F42115E8E73E0769F0A0
:103360002130384771F00895243098E7390769F023
:1033700050F02530384769F0089585E0DEDF80E0C1
:10338000089580E0FBCF50DFFACF2FDFF8CF8DDF3D
:10339000F6CF91DFF4CF81E008958F929F92AF92A4
:1033A000BF92EF92FF920F931F93CF93DF938630DC
:1033B000B0F5811135C0909180009F7D9093800081
:1033C000A0918600B0918700282F30E00E94A928A4
:1033D00025E030E040E050E00E947B2889019A011E
:1033E00080918600909187006CE070E00E945428E4
:1033F00060177107C8F0C80169E070E00E945428A6
:1034000070938B0060938A00DF91CF911F910F9191
:10341000FF90EF90BF90AF909F908F90089585E0C0
:10342000909180009062CACF809186009091870031
:10343000E0908600F0908700E0918600F091870090
:10344000C6E0D0E0BE010E945428060F171F211DC0
:10345000311D4801590185E0880C991CAA1CBB1C30
:103460008A95D1F7C701BE010E9454289F0150E000
:1034700040E0260F371F411D511DC501B4010E94B8
:103480007B2849015A01E0918600F0918700CA012A
:10349000B9010E9439289B01AC01DF010E94BE28BE
:1034A0009B01AC01C501B4010E9439282FE096951B
:1034B0008795779567952A95D1F7009186001091A9
:1034C000870030E020E0061717072807390708F0C3
:1034D00097CF609186007091870092CF0895269AC9
:1034E0002E9882E28093800089E1809381008FEFA3
:1034F0009FEF90938700809386005CCE6A9A089530
:10350000FC01EE0FFF1FE80FF91FE859FC4F618324
:10351000408322830895E8E6F3E081836083428359
:10352000339693E0E839F907C1F708953EB13B7F40
:103530002EB124604FB7F89488E693E0FC015191D6
:10354000CF0168E02EB9000000C057FF3EB9550F0B
:10355000000000C000C000C03EB900C06A9591F7ED
:10356000F3E088399F0751F74FBF8FE594E001974B
:10357000F1F700C0000008950C94E70C089580E076
:103580000E941311817008950E94D8112FEF86E7D1
:1035900091E0215080409040E1F700C000000E947F
:1035A000D811EDDF882311F0E7DFF3C60895ECCFE3
:1035B0000895CF93DF93EB0186319C4701F50E947C
:1035C000B60B9D81992391F08A7A91E009F490E0FD
:1035D00090932903811108C089E244D50E94610CAF
:1035E00080E0DF91CF91089585E3F7CF80912903A3
:1035F000811103C089E24DD5F1CF85E3FCCF81E095
:10360000F0CFCF93DF93EC01FB018581882309F490
:10361000CEC09E0130572332310508F0AEC089E498
:1036200093E00E94F10CFE01E150F047E232F10517
:1036300020F4E85DF54D0C949D288091490381604C
:103640008093490393C080914A03886080934A0322
:103650008DC0809149038260F3CF809149038460DB
:10366000EFCF809149038860EBCF80914A0381605E
:10367000EDCF80914A038260E9CF80914903806158
:10368000DFCF809149038062DBCF80914903806462
:10369000D7CF0E948407809149038068D1CF809161
:1036A00049038C60CDCF80914A038360CFCF809156
:1036B00049038E7FC5CF80914A03877FC7CF809112
:1036C00049038D7FBDCF809149038B7FB9CF809116
:1036D0004903877FB5CF80914A038E7FB7CF809112
:1036E0004A038D7FB3CF809149038F7EA9CF80910C
:1036F00049038F7DA5CF809149038F7BA1CF0E9485
:103700008407809149038F779BCF80914903837F02
:1037100097CF80914A038C7F99CF8091490382FB98
:10372000992790F921E0922790FB82F990FB83F989
:1037300087CF80914A03982F909591708E7F892B27
:1037400090FB81F983CF90914903892F8F7B96FF5E
:10375000806476CF0E94840790914903892F97FB5C
:1037600087F980586DCF81E00E94FD0C89E493E0D9
:103770000E94F30C0E94840780E0DF91CF910895AE
:1037800080E0F2CF90914903892F8F7E94FF806172
:1037900057CF90914903892F8E7F90FF816050CF42
:1037A00090914A03892F877F93FF88604FCF81E0F4
:1037B000E4CF282F35EB2303C001112497FF04C069
:1037C00080589109892F089580589F4FFBCF809191
:1037D000300380FF0DC06091200170E0660F771FFD
:1037E0006038710570F56115710569F1862F0895CE
:1037F00081FF07C06091200184E0689FB00111241F
:10380000EFCF6091200182FD0AC080912F038823B1
:10381000A9F020911F0160912001821710F088E02B
:10382000ECCF869FC001112433E0880F991F3A9591
:10383000E1F7622F70E00E946828D2CF68E070E064
:10384000D5CF8FE7089581E008958091300380FF00
:103850000CC060911C0170E0759567957595679532
:103860006115710549F1862F089581FF06C06091A9
:103870001C0170E075956795F3CF60911C0182FD86
:103880000BC090912E039923A1F060911B018091B0
:103890001C01961738F0682F70E06038710500F34E
:1038A0008FE70895899FC001112470E00E94682865
:1038B000F4CF61E070E0D7CF81E008958D3C29F42A
:1038C00086DF81958093340308958E3C11F47FDF69
:1038D000F9CF8F3C29F47BDF8195809333030895E2
:1038E000803D11F474DFF9CF893D21F4AEDF809380
:1038F000350308958A3D19F4A8DF8195F8CF8B3DF3
:1039000029F4A3DF81958093360308958C3D11F44B
:103910009CDFF9CF9FE2980F983070F4815D990B8E
:1039200021E030E001C0220F8A95EAF7809132034E
:10393000822B8093320308958D3D31F480913003C2
:1039400081608093300308958E3D21F4809130038F
:103950008260F7CF8F3DB9F7809130038460F1CF5B
:10396000409133038D3C59F48091340387FF0DC09F
:103970001092340341110BC010922F0308C08E3CEB
:1039800081F48091340318169CF3442381F08091D4
:10399000350390913603892B09F05AC010922E03FB
:1039A00008958F3C49F447FFF0CF10923303809184
:1039B00034038111ECCFE0CF803D19F41416ACF341
:1039C000E4CF90913503893D29F41916F4F610924D
:1039D0003503DBCF8A3D19F497FFD7CFF8CF90910D
:1039E00036038B3D29F497FFD0CF10923603CDCF0D
:1039F0008C3D19F41916CCF3C8CF9FE2980F98307C
:103A000090F4815D990B21E030E0B90102C0660FAE
:103A1000771F8A95E2F7CB01809590913203892335
:103A200080933203B2CF8D3D31F4809130038E7F8D
:103A300080933003AACF8E3D21F4809130038D7F97
:103A4000F7CF8F3D09F0A1CF809130038B7FF0CF6E
:103A5000089563D49C019091330380913403982B93
:103A600021F030932D0320932C0390913503809106
:103A70003603982B21F030932B0320932A0381E304
:103A800093E0E4C186E0E1E3F3E0DF011D928A9573
:103A9000E9F710922F0310922E031092300308952D
:103AA000FC01828181110EC0838181110BC0848150
:103AB000811108C091E08581811101C090E0892FBA
:103AC0008170089581E0FCCFA6E0B0E0EAE6FDE178
:103AD0000C94DD2886E0E1E3F3E0DE01119601902D
:103AE0000D928A95E1F710923303109234031092ED
:103AF0003503109236038B819C81892B81F0809154
:103B00002C0390912D039AD3AC0190912F0399230C
:103B1000A9F1809121018417150608F43CC08D811C
:103B20009E81892B89F080912A0390912B0386D363
:103B3000AC0190912E03992309F463C080911D017B
:103B40008417150608F46BC0BE016F5F7F4F81E3D9
:103B500093E0CFD2811104C081E393E0A1DF811112
:103B600078DF86E0FE013196A1E3B3E001900D928B
:103B70008A95E1F72696E3E00C94F928209122013A
:103B80008AE0289F900111242417350740F69F5F93
:103B900090932F0302C09F3FD1F71B81112351F057
:103BA00016DE9FEF11160CF491E0899F802D1124F1
:103BB000809333031C81112351F009DE9FEF11160E
:103BC0000CF491E0899F802D11248093340380911F
:103BD0003303882309F4A3CF10913403112309F48C
:103BE0009ECFE7DD882349F080933303812FE1DD09
:103BF000882329F08093340392CF81E0F5CF81E0D0
:103C0000F9CF20911E018AE0289F900111242417EA
:103C1000350708F099CF9F5F90932E0302C09F3F16
:103C2000D1F71D81112351F010DE9FEF11160CF416
:103C300091E0899F802D1124809335031E811123EB
:103C400051F003DE9FEF11160CF491E0899F802D57
:103C500011248093360380913503882309F474CFAF
:103C600010913603112309F46FCFA3DD882349F0A7
:103C700080933503812F9DDD882329F080933603BF
:103C800063CF81E0F5CF81E0F9CF0F931F93CF93FE
:103C9000DF93C42FD22FFC0185818823C1F040938C
:103CA00039033BD3909338038093370380E28C0F22
:103CB000883040F4C77081E001C0880FCA95EAF7E8
:103CC0000E947005DF91CF911F910F91089510917F
:103CD0003903141331C08091370390913803AED269
:103CE000883C910548F5C0E2CD0F1D17B9F080E280
:103CF000810F883040F4177081E001C0880F1A9559
:103D0000EAF70E947505C83048F481E09D2F97704E
:103D100001C0880F9A95EAF70E947005802F0E94D3
:103D20006905C83078F6D77081E001C0880FDA9550
:103D3000EAF70E947505C6CF80E28C0F883010F636
:103D4000C77081E001C0880FCA95EAF7F2CF0F93E0
:103D5000DB0188519C478730910598F5FC01E65BB3
:103D6000F54D0C949D2806E221EE41EE6AE17CE7D8
:103D7000CD018BDF80E00F91089507E225EE45EE3F
:103D80006BE17CE7F5CF06E221EE40EE68E17CE7EF
:103D9000EFCF07E225EE44EE69E17CE7E9CF06E2EA
:103DA00021EE42EE6CE17CE7E3CF07E225EE46EE42
:103DB0006DE17CE7DDCF08E221E045EE6EE17CE7D6
:103DC000D7CF15968C91882319F010923903D3CF51
:103DD00081E0D1CF90933F0380933E030895F4D1C7
:103DE00091E0813009F090E0892F0895E0913E0341
:103DF000F0913F03309739F00190F081E02D30973A
:103E000011F00995089580E00895F0CF0895E091AC
:103E10003E03F0913F03309731F00280F381E02DB3
:103E2000309709F009950895E0913E03F0913F0322
:103E3000309759F024813581232B39F026E0DC01BD
:103E40002C930480F581E02D09950895E0913E03BF
:103E5000F0913F03309759F026813781232B39F0B9
:103E600022E0DC012C930680F781E02D099508956E
:103E7000A3E0B0E0EEE3FFE10C94DE2820913C03E8
:103E800030913D0328173907B1F090933D0380939B
:103E90003C03E0913E03F0913F03309761F00084D2
:103EA000F185E02D309739F023E029839B838A83C5
:103EB000CE01019609952396E2E00C94FA28A3E03E
:103EC000B0E0E5E6FFE10C94DE2820913A03309162
:103ED0003B0328173907B1F090933B0380933A03D3
:103EE000E0913E03F0913F03309761F00084F1854B
:103EF000E02D309739F024E029839B838A83CE011B
:103F0000019609952396E2E00C94FA28CF93DF936B
:103F1000C0910601D0910701229661DF882381F0CC
:103F20008091490387FF0CC0C0910401D091050125
:103F300022969EE180E0915028F4DF91CF91089580
:103F400096E0F8CF29912223B1F38F5FF4CFCF937E
:103F5000C82F811102C080E023C041DF882311F106
:103F60008091490387FF1EC0EC2FE695E695E69504
:103F7000EE3188F78091040190910501E80FF92F47
:103F8000F11D228130E0C77081E090E002C0880F0F
:103F9000991FCA95E2F72823392381E0232BD9F210
:103FA000CF9108958091060190910701FC0132960E
:103FB000089621912C1721F0E817F907D1F7CBCFFC
:103FC00081E0EECF9C01FC0132969FEF80E04191B1
:103FD000461751F09F3F19F4411101C0982F8F5F90
:103FE0008630A9F79F3F09F40895290F311D97FDE9
:103FF0003A95F90162830895FC0132960896219161
:10400000261303C0DF0111971C92E817F907B9F7CF
:104010000895E62FE695E695E695EE3168F4E80F0B
:10402000F92FF11D677021E030E001C0220F6A9581
:10403000EAF78281822B82830895E62FE695E69542
:10404000E695EE3170F4E80FF92FF11D677021E06D
:1040500030E001C0220F6A95EAF72095828128237B
:1040600022830895CF93C82FBADE6C2F882359F08E
:104070008091490387FF07C0809104019091050159
:10408000C8DFCF91089580910601909107019ADFD2
:10409000F8CFCF93C82FA3DE6C2F882359F08091DF
:1040A000490387FF07C08091040190910501C5DF96
:1040B000CF91089580910601909107019DDFF8CF7F
:1040C0008EDE882379F08091490387FF0BC0E09151
:1040D0000401F091050132968EE1DF011D928A956F
:1040E000E9F70895E0910601F0910701329686E024
:1040F000F4CFDC01FB0111969C91119781819813FB
:1041000022C012968C911297882319F092818913FC
:104110001AC013968C911397882319F093818913F1
:1041200012C015968C911597882319F095818913E3
:104130000AC014969C91992321F081E024812913CF
:1041400003C080E001C081E0817008950895FECF32
:10415000089581110CC081E08093260160912301B4
:10416000709124018091250190912601F0CF82E089
:10417000F3CF83E0809326016091230170912401A5
:104180008091250190912601E2CFE3CF089581E04F
:104190008093260160912301709124018091250173
:1041A00090912601D4CFF3CF089591E0811101C001
:1041B00090E09093250160912301709124018091FA
:1041C000250190912601C3CF809125010895809308
:1041D0002401609123017091240180912501909127
:1041E0002601B5CF80912401089580932301609129
:1041F0002301709124018091250190912601A7CF80
:1042000080912301089508950895FECF089508959B
:104210000895F9CF0895CF93FADF0E94D811F8DFFF
:10422000C0E08C2F0E941311892B31F4CF5FC53071
:10423000C1F780E0CF91089581E0FCCFCF93DF9369
:10424000EC016BD08C1B9D0BDF91CF91089585B74E
:10425000806885BF85B7806885BF08951F921FB6A7
:104260001F9211248F939F93AF93BF93809140032C
:10427000811113C08091980390919903A0919A03A2
:10428000B0919B034196A11DB11D8093980390931B
:104290009903A0939A03B0939B03BF91AF919F9111
:1042A0008F911F901FBE1F9018958091A00384309E
:1042B00031F10E94F5031092400388E190E020E480
:1042C0000FB6F894A895809360000FBE209360000D
:1042D00083B7817F846083BF83B7816083BF789415
:1042E000889583B78E7F83BF0FB6F894A895809189
:1042F0006000886180936000109260000FBE089596
:104300000E9484070C94FE0382E084BD93E095BD77
:104310009AEF97BD80936E0008952FB7F89480911F
:10432000980390919903A0919A03B0919B032FBF9A
:1043300008952FB7F8946091980370919903809134
:104340009A0390919B032FBF089578941F921FB6F4
:104350001F9211248F939F93AF93BF9380919803E3
:1043600090919903A0919A03B0919B030196A11D8E
:10437000B11D8093980390939903A0939A03B093EF
:104380009B03BF91AF919F918F911F901FBE1F9074
:10439000189581E08093E00080E28093D80010922D
:1043A000C9008FE19EE40197F1F700C0000087E0AB
:1043B00090EBDC018093A9039093AA03A093AB0335
:1043C000B093AC0388E19CE00FB6F894A895809375
:1043D00060000FBE90936000FFCF88E19CE00FB6B5
:1043E000F894A895809360000FBE90936000FFCF73
:1043F0009B01BA019091A0039430E1F48F708093F7
:10440000E9009FEF8091E800915085FD06C085EDA1
:104410008A95F1F700009111F5CF8091E80085FFB2
:1044200009C050E040E0C901BAD18091E8008E7720
:104430008093E800089543E050E0BC0182E0D8CFCB
:1044400046E050E0BC0182E0D3CF40E250E0BC0146
:1044500082E0CECFCF93DF93EC01B6DE48E050E0B0
:10446000BE0181E0C5DF88E0FE01A1E4B3E0019078
:104470000D928A95E1F7DF91CF91089580919F0386
:10448000811107C01AD371D38091E20084608093B8
:10449000E200089510929F03089579DE81E085CEB1
:1044A00060919C0381E0611101C080E062CE909137
:1044B000A00381E0943009F080E060919C0365CE18
:1044C00042E061EC81E075D242E261EC82E071D2BF
:1044D0009091A00381E0943009F080E060919C030A
:1044E00038CE8091A203833009F45EC030F481306D
:1044F000C1F1823009F494C008958A3009F483C070
:104500008B3009F46BC0893009F04DC08091A10354
:10451000813209F048C08091A5039091A6030297CB
:1045200008F041C08091E800877F8093E800809187
:10453000E80082FF34C09091F3008091F20002976E
:1045400031F48091F100813011F0863019F48091BE
:10455000F1003DDE8091E8008B778093E8005DD22A
:1045600022C08091A103813AF1F48091E800877F15
:104570008093E8008091A5039091A603892B59F4BC
:1045800068E081E493E070E057D18091E8008B7798
:104590008093E800089560E090E080E0F4CF80919F
:1045A000A0038111C4CF08958091A103813AD9F766
:1045B0008091A5039091A603892BA9F78091E8002B
:1045C000877F8093E8008091E80080FFFCCFFCDDCE
:1045D0008093F1008091E8008E77BFCF8091A10396
:1045E000813209F78091A5039091A603892BD9F612
:1045F0008091E800877F8093E8000FD28091A30329
:10460000D4DD0C9484078091A103813261F68091FE
:10461000E800877F8093E80000D28091A403E5CD75
:104620008091A103813A09F0BECF8091E800877F95
:104630008093E8008091E80080FFFCCFE1DDC8CFE7
:1046400084B7877F84BF0FB6F894A89580916000E7
:10465000886180936000109260000FBE80E890E057
:104660000FB6F89480936100909361000FBE9BCDCC
:1046700024D27BD2E2EEF0E0808184608083789463
:10468000DEC487E291E0A6CB8091A003853029F4B7
:104690008091A003853011F033CE089506DEBBDD96
:1046A0008823B1F380919E03882391F362D00E9406
:1046B0008407EECF08959A014091A7035091A80373
:1046C00000C0492F55274330510519F168F4413096
:1046D000510509F444C04230510509F445C090E049
:1046E00080E050E040E025C04132510549F14232BE
:1046F0005105A9F784E490E047E155E061157105A3
:10470000C1F086EB90E041E654E06130710589F03C
:10471000E6CF99278130910581F0009729F0029723
:10472000F1F6E2EFF3E002C0E0E1F4E0849190E022
:10473000AF01F901518340830895EEEFF3E0F6CF26
:1047400089E090E046E254E06115710591F389E05B
:1047500090E04FE354E06130710559F3C0CF82E13E
:1047600090E04FE454E0E5CF8BE390E044E154E087
:10477000E0CF80E189BD82E189BD09B400FEFDCFB3
:104780008091D8008F7D8093D8008091E000826076
:104790008093E0008091E00081FDFCCF0895AF920E
:1047A000BF92CF92DF92FF920F931F93CF93DF932D
:1047B0006C01EB018A0150D1F82E811123C0011543
:1047C000110539F0F80180819181C81BD90BC80E01
:1047D000D91EB12CA12C2097A9F08091E80085FD6D
:1047E00021C08091E8008E778093E80001151105C3
:1047F000A1F0F80180819181A80EB91EB182A0823A
:1048000085E0F82E8F2DDF91CF911F910F91FF90B2
:10481000DF90CF90BF90AF9008951ED18823D9F23A
:10482000F82EF0CFF60181916F018093F10021976E
:10483000FFEFAF1ABF0ACFCFFC018091A703909181
:10484000A80386179707A0F06115710529F49091C8
:10485000E8009E779093E80090E06115710551F4AF
:10486000911108C08091E80082FF34C080E0089573
:10487000BC01F2CF8091A0038823C1F18530C1F142
:104880008091E80083FD30C08091E80082FDEACF8E
:104890008091E80080FFE1CF8091F3002091F20049
:1048A000382F6115710519F02830310558F091E065
:1048B0002830310509F090E02091E8002E77209310
:1048C000E800CBCF81918093F100615071092F5F97
:1048D0003F4FE7CF8091A003882341F0853041F01E
:1048E0008091E80083FFBECF81E0089582E00895C3
:1048F00083E00895FC018091A7039091A803861797
:104900009707A0F06115710529F48091E8008E7772
:104910008093E80090E06115710551F4911108C091
:104920008091E80082FF35C080E00895BC01F2CF9D
:104930008091A0038823C9F18530C9F18091E800F6
:1049400083FD31C08091E80082FDEACF8091E800CC
:1049500080FFE1CF8091F3002091F200382F6115A4
:10496000710519F02830310558F091E028303105F3
:1049700009F090E08091E8008E778093E800CBCF3B
:1049800084918093F1003196615071092F5F3F4F00
:10499000E6CF8091A003882341F0853041F08091DB
:1049A000E80083FFBDCF81E0089582E0089583E0B1
:1049B0000895982F973028F08F708093E90081E058
:1049C00008959093E900242F762F50E0981731F046
:1049D0007091EC002091ED005091F00021FD02C09B
:1049E0009F5FE8CF3091EB003E7F3093EB0030913A
:1049F000ED003D7F3093ED003091EB00316030935E
:104A0000EB007093EC002093ED005093F0002091A8
:104A1000EE0027FDE5CF80E008958091A10387FF98
:104A200013C08091E80082FF06C08091E8008B7778
:104A30008093E80004C08091A0038111F2CF089513
:104A40008091A0038823D9F38091E80080FFF8CFFC
:104A50008091E8008E77ECCF2091E4003091E50062
:104A600095E6A9012091EC00822F817020FF06C0FD
:104A70008091E80080FF06C080E008952091E80062
:104A800022FD1AC08091A003882389F0853089F027
:104A90008091EB0085FD0FC02091E4003091E5008E
:104AA00042175307F9F29150E1F684E0089582E04D
:104AB000089583E0089581E0089567D06ED0E0EE18
:104AC000F0E0808181608083E8EDF0E080818F7785
:104AD000808319BCA7EDB0E08C918E7F8C93808190
:104AE0008F7E808310929F0308950F931F93CF931F
:104AF000DF934BD052D0C8EDD0E088818F77888388
:104B000088818068888388818F7D888319BC109212
:104B1000A00310929C0310929E0310929D0300EE3E
:104B200010E0F80180818B7F808388818160888399
:104B300042E060E080E03DDFE1EEF0E080818E7FEA
:104B40008083E2EEF0E080818160808380818860F4
:104B50008083F80180818E7F808388818061888353
:104B6000DF91CF911F910F910895E8EDF0E08081E2
:104B70008F7E8083E7EDF0E080818160808384E038
:104B800082BF81E080939F03B0CFE8EDF0E08081A9
:104B90008E7F80831092E20008951092DA001092C6
:104BA000E10008951F920F920FB60F9211242F93D8
:104BB0003F934F935F936F937F938F939F93AF93A5
:104BC000BF93EF93FF938091E10082FF0AC0809131
:104BD000E20082FF06C08091E1008B7F8093E100BC
:104BE0002DD28091DA0080FF18C08091D80080FF1C
:104BF00014C08091DA008E7F8093DA008091D90012
:104C000080FF91C080E189BD82E189BD09B400FEC9
:104C1000FDCF81E08093A00331DC8091E10080FF33
:104C200018C08091E20080FF14C08091E2008E7F66
:104C30008093E2008091E20080618093E2008091A5
:104C4000D80080628093D80019BC85E08093A003CF
:104C500027DC8091E10084FF2AC08091E20084FF7C
:104C600026C080E189BD82E189BD89B5982F917008
:104C700080FFFBCF8091D8008F7D8093D8008091FA
:104C8000E1008F7E8093E1008091E2008F7E80932F
:104C9000E2008091E20081608093E20080919C03B9
:104CA000882309F445C084E08093A00300DC809150
:104CB000E10083FF27C08091E20083FF23C0809141
:104CC000E100877F8093E10082E08093A00310924F
:104CD0009C038091E1008E7F8093E1008091E2004F
:104CE0008E7F8093E2008091E20080618093E200F9
:104CF00042E060E080E05DDE8091F00088608093BB
:104D0000F000CBDBFF91EF91BF91AF919F918F911D
:104D10007F916F915F914F913F912F910F900FBEB7
:104D20000F901F90189519BC1092A003B3DB75CF9C
:104D30008091E30087FD93E09093A003B7CF1F928B
:104D40000F920FB60F9211242F933F934F935F93BF
:104D50006F937F938F939F93AF93BF93CF93DF9383
:104D6000EF93FF93D091E900DF708091EC00C82FA2
:104D7000C17080FDC0E81092E9008091F000877F4B
:104D80008093F00078941ED01092E9008091F0009A
:104D900088608093F000CD2BCF70C093E900FF9125
:104DA000EF91DF91CF91BF91AF919F918F917F91C3
:104DB0006F915F914F913F912F910F900FBE0F9088
:104DC0001F901895AAE2B0E0E7EEF6E2F6C181EA9C
:104DD00093E02091F100FC012193CF01F3E0893AA7
:104DE0009F07B9F77EDB8091E80083FF16C18091B1
:104DF000A1039091A2039A3008F00FC1E92FF0E0CF
:104E0000EF5AF54D9AC1803899F0823809F005C102
:104E10008091A5038F70873008F0FFC08093E90070
:104E20008091EB0085FB882780F91092E90006C08D
:104E300080919D0390919E03911182609091E80072
:104E4000977F9093E8008093F1001092F100809199
:104E5000E8008E77DFC0882309F4CDC0823009F0E6
:104E6000DCC08091A3038111D0C08091A5038F7015
:104E70002FEF280F263008F0D0C08093E900209152
:104E8000EB0020FFC2C0933031F48091EB008062D0
:104E90008093EB00BAC09091EB0090619093EB008F
:104EA00021E030E001C0220F8A95EAF72093EA0062
:104EB0001092EA008091EB008860EACF8111ADC0CA
:104EC0001091A3031F778091E3008078812B80935A
:104ED000E3008091E800877F8093E8009EDD809169
:104EE000E80080FFFCCF8091E30080688093E300BE
:104EF00082E0111183E08093A0038FC0805882303C
:104F000008F08BC08091A3039091A4038C3D23E013
:104F1000920799F583E08A838AE289834FB7F894F0
:104F2000DE01139620E03EE051E2E32FF0E05093E3
:104F30005700E49120FF03C0E295EF703F5FEF70F0
:104F40008E2F90E0EA30B8F0C7968D939D932F5F37
:104F5000243159F74FBF8091E800877F8093E800A4
:104F60006AE270E0CE01019667DC8091E8008B7701
:104F70008093E80052C0C096E8CF6091A50370917D
:104F8000A603AE014F5F5F4F96DBBC01892B09F48E
:104F900044C09091E800977F9093E80089819A81BE
:104FA000A9DCE3CF8038C9F58091E800877F809342
:104FB000E80080919C038093F10049CF81112DC0BE
:104FC0009091A303923048F58091E800877F809309
:104FD000E80090939C0321DD80919C03882311F0CD
:104FE00084E005C08091E30087FDFACF81E08093E3
:104FF000A00366DA12C08091A303813071F481E0CE
:10500000933009F080E080939E031092E900809134
:10501000E800877F8093E80000DD8091E80083FF4F
:105020000AC08091E800877F8093E8008091EB00C0
:1050300080628093EB00AA96E3E0DBC00895CF93F3
:105040008091A003882399F0C091E900CF709091DE
:10505000EC00892F817090FD80E8C82B1092E90048
:105060008091E80083FDAEDECF70C093E900CF9160
:105070000895DB018F939F9381D0BF91AF91A29F41
:10508000800D911DA39F900DB29F900D1124089546
:10509000991B79E004C0991F961708F0961B881F8A
:1050A0007A95C9F780950895AA1BBB1B51E107C0EB
:1050B000AA1FBB1FA617B70710F0A61BB70B881FA8
:1050C000991F5A95A9F780959095BC01CD01089537
:1050D00097FB072E16F4009406D077FD08D0E4DF86
:1050E00007FC05D03EF4909581959F4F08957095EB
:1050F00061957F4F0895A1E21A2EAA1BBB1BFD01EB
:105100000DC0AA1FBB1FEE1FFF1FA217B307E407A6
:10511000F50720F0A21BB30BE40BF50B661F771FFE
:10512000881F991F1A9469F76095709580959095DE
:105130009B01AC01BD01CF010895EE0FFF1F05904B
:10514000F491E02D099405D0332312F48A1B9B0BB4
:1051500010C0A29FB001B39FC001A39F700D811D1D
:105160001124911DB29F700D811D1124911D089570
:10517000F0DFB7FF0895821B930B0895EADFA59F28
:10518000900DB49F900DA49F800D911D1124089542
:10519000B7FFF4CFF3DF821B930B08952F923F925A
:1051A0004F925F926F927F928F929F92AF92BF9237
:1051B000CF92DF92EF92FF920F931F93CF93DF93E3
:1051C000CDB7DEB7CA1BDB0B0FB6F894DEBF0FBE40
:1051D000CDBF09942A88398848885F846E847D848D
:1051E0008C849B84AA84B984C884DF80EE80FD808F
:1051F0000C811B81AA81B981CE0FD11D0FB6F89405
:10520000DEBF0FBECDBFED010895002E083090F037
:10521000982F872F762F652F542F432F322F222739
:105220000850F4CF220F331F441F551F661F771FEE
:10523000881F991F0A95B2F7002D089597FD1094C5
:10524000002E083098F00850232F342F452F562F6A
:10525000672F782F892F912DF4CF159497958795E7
:105260007795679557954795379527950A95AAF7A6
:105270001124002D08958F929F92AF92BF92CF92EA
:10528000DF92EF92FF92CF93DF93EC0168817981F7
:105290008A819B81611571058105910521F464E284
:1052A00079ED8BE597E02DE133EF41E050E09BD0C5
:1052B00049015A019B01AC01A7EAB1E45FDF6B0130
:1052C0007C01ACEEB4EFA501940164DFDC01CB01FD
:1052D0008C0D9D1DAE1DBF1DB7FF03C00197A10919
:1052E000B04888839983AA83BB839F77DF91CF914E
:1052F000FF90EF90DF90CF90BF90AF909F908F90F6
:105300000895B9CF80E091E0B6CFB0E0A0E08093FF
:10531000000190930101A0930201B093030108954D
:10532000FC014150504030F001900616D1F7319702
:10533000CF010895882799270895FB01DC0104C057
:105340008D910190801921F441505040C8F7881B7D
:10535000990B0895FB01DC0102C001900D924150B0
:105360005040D8F70895F999FECF92BD81BDF89AC3
:10537000992780B50895A6E1B0E044E050E025C04B
:10538000A8E1B0E042E050E020C0262FF999FECF1E
:1053900092BD81BDF89A019700B4021639F01FBA88
:1053A00020BD0FB6F894FA9AF99A0FBE08950396A5
:1053B000272FECDFEADF252FE9DF242FE7CF019647
:1053C000272FE4DFE2CFDC01CB01FC01F999FECF0E
:1053D00006C0F2BDE1BDF89A319600B40D9241507D
:1053E0005040B8F70895052E97FB16F400940FD09F
:1053F00057FD05D080DE07FC02D046F408C050956A
:105400004095309521953F4F4F4F5F4F08959095B0
:105410008095709561957F4F8F4F9F4F0895F894B9
:10542000FFCFB805B805EE05EE0547066306E005B3
:10543000E0056706D006DC06DC06791280128412CD
:1054400088128C129012941298129C12A012A4121C
:10545000571BC91B5F1B291B2D1B631B311B671BA4
:10546000731B3D1BC21B411B771B451B7B1BA31BD7
:10547000491B7F1BAA1B4F1B851B8D1B351B6B1BE1
:10548000391B6F1B531B891B991BB31BC01B231B91
:105490005B1BD01BC31EC91EB31EBD1ECF1ED51E57
:1054A000DB1E03272B270D282B270D285E277E27A1
:0654B0000D28D227DE27C3
:1054B600010000008A02AA02010102001000101079
:1054C60001191A1B1C1D1E1F202122280850011E0F
:1054D6000A140100000100F2202A22252220221BA4
:1054E60022E200E900EA00B500B600B700CD00836D
:1054F60001CC008A01920194012102230224022593
:1055060002260227022A02B300B4006F0070009F31
:1055160001CB019F02A002818283E200E900EA003A
:10552600B500B600B700CD008301CC008A01920118
:1055360094012102230224022502260227022A02BE
:10554600B300B4006F0070009F01CB019F02A00260
:10555600818283F0F1C66766379431303534979689
:1055660033F4909192939500010202020206060618
:105576000909090909090F0F0F0F0F0F151515183E
:105586001919191919191919191923242525252540
:0A55960025257E1A801A8B1A961A3A
:00000001FF
